:100000000C942A000C9425090C9458090C948B0923
:100010000C9447000C9447000C9447000C94470044
:100020000C9447000C9447000C9447000C94470034
:100030000C9447000C9447000C9447000C94470024
:100040000C9447000C9447000C9447000C94470014
:100050000C94470011241FBECFE5D8E0DEBFCDBF12
:1000600010E0A0E6B0E0E8E7FAE302C005900D92E8
:10007000A83DB107D9F710E0A8EDB0E001C01D928E
:10008000AE3DB107E1F70E9475180C943A1D0C942F
:100090000000EF92FF920F931F937B018C0120E0F1
:1000A00030E040E05FE40E94F50388238CF0C80153
:1000B000B70120E030E040E05FE40E94C1010E940F
:1000C00055049B01AC01205030404040504806C0D0
:1000D000C801B7010E9455049B01AC01B901CA01D6
:1000E0001F910F91FF90EF900895A0E0B0E0EBE733
:1000F000F0E00C94031DDC012B01FA019C9192307D
:1001000008F439C1EB018881823008F433C194309E
:1001100069F4843009F02FC111969C91119789815F
:10012000981709F428C1A5EBB0E025C1843009F483
:1001300021C18230A9F4923009F01DC19A01AD01AC
:1001400088E0EA010990AE01E90109929E0181501F
:10015000C1F7E201898111969C918923818308C1AD
:10016000923009F407C112962D903C901397EB0141
:100170008A819B811496AD90BD90CD90DC901797AD
:10018000EC80FD800E811F819101281B390BB90184
:1001900037FF04C066277727621B730B6032710537
:1001A0000CF061C0121613066CF537014801062EDB
:1001B00004C096948794779467940A94D2F721E0C8
:1001C00030E040E050E004C0220F331F441F551FB1
:1001D0006A95D2F721503040404050402E213F21B7
:1001E00040235123211531054105510521F021E01E
:1001F00030E040E050E079018A01E628F72808293C
:1002000019293CC0232BD1F1260E371E350146019A
:10021000062E04C096948794779467940A94D2F734
:1002200021E030E040E050E004C0220F331F441FC3
:10023000551F6A95D2F721503040404050402A2146
:100240003B214C215D21211531054105510521F04E
:1002500021E030E040E050E059016A01A628B728CB
:10026000C828D9280BC0821593052CF01C01AA249C
:10027000BB24650103C0EE24FF24870111969C91E5
:10028000D20111968C91981709F445C0992339F041
:10029000A80197012A193B094C095D0906C0A6016E
:1002A00095012E193F09400B510B57FD08C01182D3
:1002B0003382228224833583468357831DC081E0A5
:1002C00081833382228288279927DC01821B930B4A
:1002D000A40BB50B84839583A683B7830DC0220F2F
:1002E000331F441F551F24833583468357838281E0
:1002F000938101979383828324813581468157813D
:10030000DA01C9010197A109B1098F5F9F4FAF4F72
:10031000BF4328F30BC0918333822282EA0CFB1C7B
:100320000C1D1D1DE482F5820683178383E0808304
:10033000248135814681578157FF1AC0C901AA27F8
:1003400097FDA095BA2F81709070A070B0705695EF
:10035000479537952795822B932BA42BB52B848318
:100360009583A683B7838281938101969383828349
:10037000DF0101C0D201CD01CDB7DEB7E2E10C94BF
:100380001F1DA0E2B0E0E7ECF1E00C940F1D6983C3
:100390007A838B839C832D833E834F835887E9E048
:1003A000EE2EF12CEC0EFD1ECE010196B7010E943F
:1003B0007E058E010F5E1F4FCE010596B8010E948B
:1003C0007E058A8991E089278A8BC701B801AE0131
:1003D000475E5F4F0E9475000E94A904A096E6E068
:1003E0000C942B1DA0E2B0E0E8EFF1E00C940F1D9F
:1003F00069837A838B839C832D833E834F835887C5
:10040000F9E0EF2EF12CEC0EFD1ECE010196B701A6
:100410000E947E058E010F5E1F4FCE010596B8012A
:100420000E947E05C701B801AE01475E5F4F0E9482
:1004300075000E94A904A096E6E00C942B1DA0E292
:10044000B0E0E5E2F2E00C94031D69837A838B83CC
:100450009C832D833E834F835887CE010196BE0136
:10046000675F7F4F0E947E05CE010596BE016F5EDD
:100470007F4F0E947E059985923088F0898982306D
:10048000C8F0943019F4823051F404C0843029F457
:10049000923081F485EB90E0C6C0923049F420E0C0
:1004A0009A858A89981321E02A87CE010996BBC0D4
:1004B000823049F420E09A858A89981321E02A8BBA
:1004C000CE014196B0C02D843E844F8458886D88FB
:1004D0007E888F88988CEE24FF248701AA24BB2471
:1004E000650140E050E060E070E0E0E0F0E0C10174
:1004F00081709070892BE9F0E60CF71C081D191D1E
:100500009A01AB012A0D3B1D4C1D5D1D80E090E062
:10051000A0E0B0E0E614F7040805190520F481E036
:1005200090E0A0E0B0E0BA01A901480F591F6A1F8E
:100530007B1FAA0CBB1CCC1CDD1C97FE08C081E0F5
:1005400090E0A0E0B0E0A82AB92ACA2ADB2A3196B6
:10055000E032F10549F0660C771C881C991C569412
:10056000479437942794C3CFFA85EA892B893C892D
:100570008B859C85280F391F2E5F3F4F17C0CA01FE
:1005800081709070892B61F016950795F794E79428
:1005900080E090E0A0E0B0E8E82AF92A0A2B1B2BC3
:1005A00076956795579547952F5F3F4F77FDE7CF36
:1005B0000CC0440F551F661F771F17FD4160EE0CDE
:1005C000FF1C001F111F21503040403090E05907A0
:1005D00090E0690790E4790760F32B8F3C8FDB0193
:1005E000CA018F779070A070B07080349105A1051A
:1005F000B10561F447FD0AC0E114F10401051105DC
:1006000029F0405C5F4F6F4F7F4F40781A8EFE1786
:1006100011F081E08A8F4D8F5E8F6F8F78A383E01A
:10062000898FCE0149960E94A904A096E2E10C941C
:100630001F1DA8E1B0E0EFE1F3E00C940B1D69830E
:100640007A838B839C832D833E834F835887B9E0C5
:10065000EB2EF12CEC0EFD1ECE010196B7010E948F
:100660007E058E010F5E1F4FCE010596B8010E94D8
:100670007E052985223008F47EC03989323010F495
:10068000B8017CC08A859A8989278A87243011F02D
:10069000223031F4231709F06EC065EB70E06EC0B4
:1006A000343039F41D861E861F86188A1C861B86E8
:1006B00004C0323021F484E08987B7015FC02B8504
:1006C0003C858B899C89281B390B3C872B87ED84C3
:1006D000FE840F851889AD88BE88CF88D88CEA142F
:1006E000FB040C051D0540F4EE0CFF1C001F111F40
:1006F000215030403C872B8720E030E040E050E044
:1007000080E090E0A0E0B0E460E070E0EA14FB0478
:100710000C051D0540F0282B392B4A2B5B2BEA18C2
:10072000FB080C091D09B695A79597958795EE0CC2
:10073000FF1C001F111F6F5F7F4F6F31710531F775
:10074000DA01C9018F779070A070B0708034910584
:10075000A105B10561F427FD0AC0E114F10401050A
:10076000110529F0205C3F4F4F4F5F4F20782D87B8
:100770003E874F87588BBE01675F7F4FCB010E943A
:10078000A9046896EAE00C94271DA8E1B0E0EBEC20
:10079000F3E00C940F1D69837A838B839C832D83F4
:1007A0003E834F83588789E0E82EF12CEC0EFD1E26
:1007B000CE010196B7010E947E058E010F5E1F4F8C
:1007C000CE010596B8010E947E058985823040F0F1
:1007D0008989823028F0C701B8010E94F60501C05E
:1007E0008FEF6896E6E00C942B1DA8E1B0E0EBEFEC
:1007F000F3E00C940F1D69837A838B839C832D8394
:100800003E834F83588789E0E82EF12CEC0EFD1EC5
:10081000CE010196B7010E947E058E010F5E1F4F2B
:10082000CE010596B8010E947E058985823040F090
:100830008989823028F0C701B8010E94F60501C0FD
:100840008FEF6896E6E00C942B1DA8E1B0E0EBE298
:10085000F4E00C940F1D69837A838B839C832D8332
:100860003E834F83588789E0E82EF12CEC0EFD1E65
:10087000CE010196B7010E947E058E010F5E1F4FCB
:10088000CE010596B8010E947E058985823040F030
:100890008989823028F0C701B8010E94F60501C09D
:1008A00081E06896E6E00C942B1DACE0B0E0EBE54F
:1008B000F4E00C94131D69837A838B839C83CE01AF
:1008C0000196BE016B5F7F4F0E947E058D81823055
:1008D00061F1823050F1843021F48E81882351F10E
:1008E0002EC02F81388537FD20C06E812F31310514
:1008F0001CF06623F9F023C08EE190E0821B930B7D
:1009000029853A854B855C8504C056954795379572
:1009100027958A95D2F76623B1F05095409530958A
:1009200021953F4F4F4F5F4F0EC020E030E040E039
:1009300050E009C02FEF3FEF4FEF5FE704C020E02A
:1009400030E040E050E8B901CA012C96E2E00C9496
:100950002F1DDF92EF92FF920F931F93FC01E48013
:10096000F58006811781D1808081823048F480E053
:1009700090E0A0E1B0E0E82AF92A0A2B1B2BA5C0E1
:10098000843009F49FC0823021F4EE24FF248701D3
:1009900005C0E114F1040105110519F4E0E0F0E0EF
:1009A00096C0628173819FEF623879070CF05BC05B
:1009B00022E83FEF261B370B2A3131052CF020E0CF
:1009C00030E040E050E02AC0B801A701022E04C088
:1009D00076956795579547950A94D2F781E090E010
:1009E000A0E0B0E004C0880F991FAA1FBB1F2A9582
:1009F000D2F70197A109B1098E219F21A023B1232C
:100A00000097A105B10521F081E090E0A0E0B0E001
:100A10009A01AB01282B392B4A2B5B2BDA01C90138
:100A20008F779070A070B07080349105A105B105EA
:100A300039F427FF09C0205C3F4F4F4F5F4F04C080
:100A4000215C3F4F4F4F5F4FE0E0F0E02030A0E0EF
:100A50003A07A0E04A07A0E45A0710F0E1E0F0E00E
:100A600079018A0127C06038710564F5FB01E158FE
:100A7000FF4FD801C7018F779070A070B07080349D
:100A80009105A105B10539F4E7FE0DC080E490E0C1
:100A9000A0E0B0E004C08FE390E0A0E0B0E0E80E9A
:100AA000F91E0A1F1B1F17FF05C016950795F7941F
:100AB000E794319687E016950795F794E7948A9521
:100AC000D1F705C0EE24FF248701EFEFF0E06E2F91
:100AD000679566276795902F9F77D794DD24D794E5
:100AE0008E2F8695492F462B582F5D29B701CA01B5
:100AF0001F910F91FF90EF90DF900895FC01DB01B3
:100B0000408151812281622F6F7770E0221F22275E
:100B1000221F9381892F880F822B282F30E0991F65
:100B20009927991F11969C93119721153105A9F5C5
:100B3000411551056105710511F482E037C082E865
:100B40009FEF13969C938E9312979A01AB0167E0E7
:100B5000220F331F441F551F6A95D1F783E08C93F2
:100B60000DC0220F331F441F551F12968D919C916B
:100B70001397019713969C938E931297203080E0E1
:100B8000380780E0480780E4580758F314962D93FF
:100B90003D934D935C93179708952F3F310579F45A
:100BA000411551056105710519F484E08C93089590
:100BB00064FF03C081E08C9312C01C9210C02F57B9
:100BC000304013963C932E93129783E08C9387E0EA
:100BD000440F551F661F771F8A95D1F770641496CE
:100BE0004D935D936D937C93179708951F93DC014C
:100BF000FB019C91923008F447C08081823008F458
:100C000043C0943051F411961C91843099F5818140
:100C1000682F70E0611B71093FC0843021F0923071
:100C200031F48230B9F18181882389F12DC0119688
:100C30001C9111978230F1F081811817D9F4129626
:100C40002D913C911397828193818217930794F0A1
:100C500028173907BCF014968D919D910D90BC9189
:100C6000A02D2481358146815781281739074A07ED
:100C70005B0718F4112341F00AC082179307A407F9
:100C8000B50740F4112319F061E070E005C06FEF83
:100C90007FEF02C060E070E0CB011F910895DF9309
:100CA000CF93CDB7DEB76F970FB6F894DEBF0FBE08
:100CB000CDBF8F8F81E08E8F8F8D813009F07DC009
:100CC00082E060E041E00E94E21982E061E040E001
:100CD0000E94E21980E090E0A8E4B3E4898F9A8F43
:100CE000AB8FBC8F698D7A8D8B8D9C8D20E030E031
:100CF0004AE753E40E941F02DC01CB018D8B9E8BDF
:100D0000AF8BB88F6D897E898F89988D20E030E018
:100D100040E85FE30E94250488232CF481E090E002
:100D20009C8B8B8B3FC06D897E898F89988D20E04D
:100D30003FEF4FE757E40E94C50318164CF5698D45
:100D40007A8D8B8D9C8D20E030E040E251E40E9452
:100D50001F02DC01CB01BC01CD010E944900DC0176
:100D6000CB019C8B8B8B0FC089E190E09A8B898B98
:100D700089899A890197F1F79A8B898B8B899C894C
:100D800001979C8B8B8B8B899C89009769F797C007
:100D90006D897E898F89988D0E944900DC01CB0185
:100DA0009C8B8B8B8B899C89988B8F878F8598895F
:100DB0000197F1F7988B8F8782C08F8D882309F078
:100DC0007DC082E060E040E00E94E21982E061E0E4
:100DD00041E00E94E21980E090E0A8E4B3E48B8750
:100DE0009C87AD87BE876B857C858D859E8520E041
:100DF00030E04AE753E40E941F02DC01CB018F83FD
:100E00009887A987BA876F81788589859A8520E038
:100E100030E040E85FE30E94250488232CF481E061
:100E200090E09E838D833FC06F81788589859A8508
:100E300020E03FEF4FE757E40E94C50318164CF53A
:100E40006B857C858D859E8520E030E040E251E415
:100E50000E941F02DC01CB01BC01CD010E944900B0
:100E6000DC01CB019E838D830FC089E190E09C83E0
:100E70008B838B819C810197F1F79C838B838D8180
:100E80009E8101979E838D838D819E81009769F756
:100E900016C06F81788589859A850E944900DC019A
:100EA000CB019E838D838D819E819A8389838981E5
:100EB0009A810197F1F79A83898301C01D8E8E8DE7
:100EC0006F960FB6F894DEBF0FBECDBFCF91DF9106
:100ED0000895DF93CF93CDB7DEB72B970FB6F89475
:100EE000DEBF0FBECDBF8A836B8381E089838A8199
:100EF000282F30E03B872A878A859B8581309105A2
:100F000009F485C02A853B852230310509F4F9C0F2
:100F10008A859B85009709F023C18B81282F30E0BB
:100F200039872887888599858130910561F12885E1
:100F30003985223031052CF488859985009769F030
:100F400064C0288539852330310599F188859985D4
:100F50008430910509F443C058C0A5E5B0E0E5E54B
:100F6000F0E0808182608C93A5E5B0E0E5E5F0E0FB
:100F7000808181608C93ABE5B0E0EBE5F0E08081AF
:100F800080648C93EEC0A5E5B0E0E5E5F0E08081FB
:100F900082608C93A5E5B0E0E5E5F0E080818E7F8E
:100FA0008C93ABE5B0E0EBE5F0E0808180648C935E
:100FB000D8C0A5E5B0E0E5E5F0E080818D7F8C93B9
:100FC000A5E5B0E0E5E5F0E0808181608C93ABE5DC
:100FD000B0E0EBE5F0E0808180648C93C2C0A5E5D1
:100FE000B0E0E5E5F0E080818D7F8C93A5E5B0E091
:100FF000E5E5F0E080818E7F8C93ABE5B0E0EBE53A
:10100000F0E0808180648C93ACC01982AAC08B818F
:10101000282F30E03F832E838E819F818130910580
:1010200061F12E813F81223031052CF48E819F8128
:10103000009769F064C02E813F812330310599F11A
:101040008E819F818430910509F443C058C0A5E585
:10105000B0E0E5E5F0E0808188608C93A5E5B0E044
:10106000E5E5F0E0808184608C93ABE5B0E0EBE5F2
:10107000F0E0808180688C9374C0A5E5B0E0E5E580
:10108000F0E0808188608C93A5E5B0E0E5E5F0E0D4
:1010900080818B7F8C93ABE5B0E0EBE5F0E0808165
:1010A00080688C935EC0A5E5B0E0E5E5F0E0808166
:1010B000877F8C93A5E5B0E0E5E5F0E08081846072
:1010C0008C93ABE5B0E0EBE5F0E0808180688C9339
:1010D00048C0A5E5B0E0E5E5F0E08081877F8C932E
:1010E000A5E5B0E0E5E5F0E080818B7F8C93ABE592
:1010F000B0E0EBE5F0E0808180688C9332C019822B
:1011000030C08B81282F30E03D832C838C819D81E2
:10111000009731F02C813D812130310581F01EC0D6
:10112000A5E5B0E0E5E5F0E0808180648C93ABE577
:10113000B0E0EBE5F0E0808180628C9312C0A5E521
:10114000B0E0E5E5F0E080818F7B8C93ABE5B0E02B
:10115000EBE5F0E0808180628C9303C0198201C0CE
:10116000198289812B960FB6F894DEBF0FBECDBFD2
:10117000CF91DF910895DF93CF9300D000D0CDB70A
:10118000DEB78A8381E089838A81882F90E0009787
:1011900061F58A81282F30E03C832B838B819C81F1
:1011A0008130910589F02B813C8122303105A1F0FD
:1011B0008B819C810097C1F4ABE5B0E0EBE5F0E0FA
:1011C00080818F7B8C9311C0ABE5B0E0EBE5F0E064
:1011D00080818F778C9309C0ABE5B0E0EBE5F0E060
:1011E00080818F7D8C9301C0198289810F900F902F
:1011F0000F900F90CF91DF910895DF93CF9300D0A0
:1012000000D0CDB7DEB78A837C836B8381E089838E
:101210008A81833088F481E090E09C838B838A818B
:10122000882F90E0880F991FFC01E852FF4F8B81B7
:101230009C819183808301C0198289810F900F90D6
:101240000F900F90CF91DF9108951F920F920FB6DC
:101250000F9211242F933F934F935F936F937F933C
:101260008F939F93AF93BF93EF93FF93DF93CF93AE
:10127000CDB7DEB78091D8009091D900009729F0C2
:10128000E091D800F091D9000995CF91DF91FF91BD
:10129000EF91BF91AF919F918F917F916F915F91EE
:1012A0004F913F912F910F900FBE0F901F90189567
:1012B0001F920F920FB60F9211242F933F934F93CB
:1012C0005F936F937F938F939F93AF93BF93EF93AE
:1012D000FF93DF93CF93CDB7DEB78091DA00909183
:1012E000DB00009729F0E091DA00F091DB0009952E
:1012F000CF91DF91FF91EF91BF91AF919F918F912E
:101300007F916F915F914F913F912F910F900FBE01
:101310000F901F9018951F920F920FB60F921124E5
:101320002F933F934F935F936F937F938F939F93ED
:10133000AF93BF93EF93FF93DF93CF93CDB7DEB718
:101340008091DC009091DD00009729F0E091DC00B5
:10135000F091DD000995CF91DF91FF91EF91BF9161
:10136000AF919F918F917F916F915F914F913F913D
:101370002F910F900FBE0F901F901895DF93CF9372
:10138000CDB7DEB7AFE5B0E0EFE5F0E08081806893
:101390008C93CF91DF910895DF93CF93CDB7DEB7D4
:1013A000AFE5B0E0EFE5F0E080818F778C93CF91EF
:1013B000DF910895DF93CF93CDB7DEB767970FB670
:1013C000F894DEBF0FBECDBF9E8B8D8B81E08B8BE3
:1013D000188A8D899E89009709F4F0C0ED89FE89ED
:1013E0008FEF80831A8AE5C08A89882F90E0FC01FC
:1013F000E353FF4F908180E0692F40E00E94E219A3
:10140000198AC1C08989882F90E0FC01EF52FF4FF3
:1014100090819E012C5E3F4F80E0692FA9010E94C0
:10142000081B8C89882309F0ABC080E090E0A0EA1B
:10143000B1E48B879C87AD87BE876B857C858D8566
:101440009E8520E030E04AEF54E40E941F02DC0158
:10145000CB018F839887A987BA876F817885898523
:101460009A8520E030E040E85FE30E94250488236D
:101470002CF481E090E09E838D833FC06F8178855E
:1014800089859A8520E03FEF4FE757E40E94C50326
:1014900018164CF56B857C858D859E8520E030E0A7
:1014A00040E251E40E941F02DC01CB01BC01CD01EE
:1014B0000E944900DC01CB019E838D830FC088EC24
:1014C00090E09C838B838B819C810197F1F79C83B7
:1014D0008B838D819E8101979E838D838D819E81DB
:1014E000009769F714C06F81788589859A850E9475
:1014F0004900DC01CB019E838D838D819E819A837F
:10150000898389819A810197F1F79A8389838989EF
:10151000882F90E0FC01EF52FF4F90819E012C5EDE
:101520003F4F80E0692FA9010E94081B0FC08989E5
:10153000882F90E0FC01EF52FF4F90819E012C5EBE
:101540003F4F80E0692FA9010E94081B8C898823E6
:1015500071F38A89482F50E08989282F30E0CA0129
:10156000880F991F880F991F820F931FFC01E35466
:10157000FF4F8081ED89FE89808381E0888B07C0E1
:1015800089898F5F898B8989843008F43BCF8A8968
:10159000882F90E0FC01E353FF4F908180E0692F9A
:1015A00041E00E94E2198889813049F08A898F5F81
:1015B0008A8B8A89843008F417CF01C01F8667960A
:1015C0000FB6F894DEBF0FBECDBFCF91DF91089567
:1015D0000F931F93DF93CF93CDB7DEB7C655D0409F
:1015E0000FB6F894DEBF0FBECDBFFE01ED5AFF4F20
:1015F00080E090E0ACE0B2E480839183A283B38387
:101600008E01015B1F4FFE01ED5AFF4F608171811A
:101610008281938120E030E04AE753E40E941F0278
:10162000DC01CB01F80180839183A283B383FE01A7
:10163000E15BFF4F608171818281938120E030E026
:1016400040E85FE30E942504882344F4FE01E35B45
:10165000FF4F81E090E09183808364C0FE01E15BF5
:10166000FF4F608171818281938120E03FEF4FE7DE
:1016700057E40E94C50318160CF043C0FE01ED5A52
:10168000FF4F608171818281938120E030E040E2F0
:1016900051E40E941F02DC01CB018E01035B1F4F4E
:1016A000BC01CD010E944900DC01CB01F80191830E
:1016B00080831FC0FE01E55BFF4F89E190E09183CD
:1016C0008083FE01E55BFF4F808191810197F1F7F7
:1016D000FE01E55BFF4F91838083DE01A35BBF4F7B
:1016E000FE01E35BFF4F80819181019711969C93EE
:1016F0008E93FE01E35BFF4F808191810097D1F6CD
:1017000027C08E01035B1F4FFE01E15BFF4F60812D
:101710007181828193810E944900DC01CB01F80133
:1017200091838083DE01A75BBF4FFE01E35BFF4F28
:10173000808191818D939C93FE01E75BFF4F8081B7
:1017400091810197F1F7FE01E75BFF4F9183808361
:1017500088E30E94190EFE01EB5BFF4F80E090E0F2
:10176000A0E2B2E480839183A283B3838E010F5BF6
:101770001F4FFE01EB5BFF4F60817181828193817E
:101780002BEA3AEA4AEA5EE30E941F02DC01CB013F
:10179000F80180839183A283B383FE01EF5BFF4F47
:1017A000608171818281938120E030E040E85FE3D5
:1017B0000E942504882334F481E0FE01E05CFF4FA1
:1017C00080839DC0FE01EF5BFF4F6081718182814C
:1017D000938120E030E04FE753E40E94C5031816E0
:1017E0000CF07EC0FE01EB5BFF4F60817181828156
:1017F000938120E030E04AE754E40E941903DC01C1
:10180000CB018CAF9DAFAEAFBFAF6CAD7DAD8EAD3C
:101810009FAD20E030E04AE753E40E941F02DC0164
:10182000CB0188AF99AFAAAFBBAF68AD79AD8AAD38
:101830009BAD20E030E040E85FE30E942504882370
:101840002CF481E090E09FAB8EAB3FC068AD79ADEA
:101850008AAD9BAD20E03FEF4FE757E40E94C50300
:1018600018164CF56CAD7DAD8EAD9FAD20E030E02F
:1018700040E251E40E941F02DC01CB01BC01CD011A
:101880000E944900DC01CB019FAB8EAB0FC089E108
:1018900090E09DAB8CAB8CA99DA90197F1F79DAB16
:1018A0008CAB8EA99FA901979FAB8EAB8EA99FA9E8
:1018B000009769F72DC068AD79AD8AAD9BAD0E94E8
:1018C0004900DC01CB019FAB8EAB8EA99FA99BABDE
:1018D0008AAB8AA99BA90197F1F79BAB8AAB18C089
:1018E000FE01EF5BFF4F60817181828193810E94D5
:1018F0004900DC01CB01FE01E05CFF4F8083FE016B
:10190000E05CFF4F808189AB89A98A95F1F789ABAB
:101910008FE00E94190E80E090E0A0E2B2E48DA773
:101920009EA7AFA7B8AB6DA57EA58FA598A92BEAFA
:101930003AEA4AEA5EE30E941F02DC01CB0189A772
:101940009AA7ABA7BCA769A57AA58BA59CA520E003
:1019500030E040E85FE30E94250488231CF481E026
:1019600088A791C069A57AA58BA59CA520E030E049
:101970004FE753E40E94C50318160CF07BC06DA519
:101980007EA58FA598A920E030E04AE754E40E94A4
:101990001903DC01CB018CA39DA3AEA3BFA36CA153
:1019A0007DA18EA19FA120E030E04AE753E40E9490
:1019B0001F02DC01CB0188A399A3AAA3BBA368A142
:1019C00079A18AA19BA120E030E040E85FE30E947A
:1019D000250488232CF481E090E09F8F8E8F3FC0F8
:1019E00068A179A18AA19BA120E03FEF4FE757E4CE
:1019F0000E94C50318164CF56CA17DA18EA19FA174
:101A000020E030E040E251E40E941F02DC01CB0103
:101A1000BC01CD010E944900DC01CB019F8F8E8F5C
:101A20000FC089E190E09D8F8C8F8C8D9D8D0197EB
:101A3000F1F79D8F8C8F8E8D9F8D01979F8F8E8F4D
:101A40008E8D9F8D009769F724C068A179A18AA126
:101A50009BA10E944900DC01CB019F8F8E8F8E8D50
:101A60009F8D9B8F8A8F8A8D9B8D0197F1F79B8F1E
:101A70008A8F0FC069A57AA58BA59CA50E944900F5
:101A8000DC01CB0188A788A5898F898D8A95F1F71C
:101A9000898F81E00E94190E80E090E0A0EAB0E416
:101AA0008D8B9E8BAF8BB88F6D897E898F89988D3A
:101AB0002BEA3AEA4AEA5EE30E941F02DC01CB010C
:101AC000898B9A8BAB8BBC8B69897A898B899C8932
:101AD00020E030E040E85FE30E94250488231CF406
:101AE00081E0888B91C069897A898B899C8920E003
:101AF00030E04FE753E40E94C50318160CF07BC09A
:101B00006D897E898F89988D20E030E04AE754E422
:101B10000E941903DC01CB018C879D87AE87BF87AC
:101B20006C857D858E859F8520E030E04AE753E413
:101B30000E941F02DC01CB0188879987AA87BB8797
:101B4000688579858A859B8520E030E040E85FE301
:101B50000E94250488232CF481E090E09F838E83EB
:101B60003FC0688579858A859B8520E03FEF4FE7F8
:101B700057E40E94C50318164CF56C857D858E854B
:101B80009F8520E030E040E251E40E941F02DC012A
:101B9000CB01BC01CD010E944900DC01CB019F8338
:101BA0008E830FC089E190E09D838C838C819D8121
:101BB0000197F1F79D838C838E819F8101979F838D
:101BC0008E838E819F81009769F724C0688579850F
:101BD0008A859B850E944900DC01CB019F838E830F
:101BE0008E819F819B838A838A819B810197F1F7F4
:101BF0009B838A830FC069897A898B899C890E941B
:101C00004900DC01CB01888B8889898389818A9589
:101C1000F1F7898386E00E94190ECA5ADF4F0FB68A
:101C2000F894DEBF0FBECDBFCF91DF911F910F9112
:101C30000895DF93CF93CDB7DEB769970FB6F894C9
:101C4000DEBF0FBECDBF898F83E065E040E00E941C
:101C5000E21983E066E040E00E94E21981E0698DCC
:101C60000E94621C83E067E041E00E94E21980E08C
:101C700090E0A0E8BFE38D8B9E8BAF8BB88F6D8912
:101C80007E898F89988D2BEA3AEA4AEA5EE30E94C0
:101C90001F02DC01CB01898B9A8BAB8BBC8B6989D2
:101CA0007A898B899C8920E030E040E85FE30E94DC
:101CB000250488231CF481E0888B91C069897A8986
:101CC0008B899C8920E030E04FE753E40E94C503F4
:101CD00018160CF07BC06D897E898F89988D20E065
:101CE00030E04AE754E40E941903DC01CB018C8701
:101CF0009D87AE87BF876C857D858E859F8520E01B
:101D000030E04AE753E40E941F02DC01CB018887E0
:101D10009987AA87BB87688579858A859B8520E016
:101D200030E040E85FE30E94250488232CF481E042
:101D300090E09F838E833FC0688579858A859B85E7
:101D400020E03FEF4FE757E40E94C50318164CF51B
:101D50006C857D858E859F8520E030E040E251E4F2
:101D60000E941F02DC01CB01BC01CD010E94490091
:101D7000DC01CB019F838E830FC089E190E09D83BE
:101D80008C838C819D810197F1F79D838C838E815B
:101D90009F8101979F838E838E819F81009769F732
:101DA00024C0688579858A859B850E944900DC016D
:101DB000CB019F838E838E819F819B838A838A81BF
:101DC0009B810197F1F79B838A830FC069897A8988
:101DD0008B899C890E944900DC01CB01888B888912
:101DE000898389818A95F1F7898383E067E040E000
:101DF0000E94E21969960FB6F894DEBF0FBECDBF00
:101E0000CF91DF910895DF93CF93CDB7DEB7699778
:101E10000FB6F894DEBF0FBECDBF898F83E065E0BB
:101E200041E00E94E21983E066E040E00E94E2198E
:101E300081E0698D0E94621C83E067E041E00E94BE
:101E4000E21980E090E0A0E8BFE38D8B9E8BAF8B22
:101E5000B88F6D897E898F89988D2BEA3AEA4AEA94
:101E60005EE30E941F02DC01CB01898B9A8BAB8B56
:101E7000BC8B69897A898B899C8920E030E040E8B5
:101E80005FE30E94250488231CF481E0888B91C0C5
:101E900069897A898B899C8920E030E04FE753E497
:101EA0000E94C50318160CF07BC06D897E898F894E
:101EB000988D20E030E04AE754E40E941903DC01E9
:101EC000CB018C879D87AE87BF876C857D858E858E
:101ED0009F8520E030E04AE753E40E941F02DC01C6
:101EE000CB0188879987AA87BB87688579858A858A
:101EF0009B8520E030E040E85FE30E9425048823D2
:101F00002CF481E090E09F838E833FC068857985C3
:101F10008A859B8520E03FEF4FE757E40E94C50389
:101F200018164CF56C857D858E859F8520E030E008
:101F300040E251E40E941F02DC01CB01BC01CD0153
:101F40000E944900DC01CB019F838E830FC089E191
:101F500090E09D838C838C819D810197F1F79D8317
:101F60008C838E819F8101979F838E838E819F8139
:101F7000009769F724C0688579858A859B850E94CA
:101F80004900DC01CB019F838E838E819F819B83DF
:101F90008A838A819B810197F1F79B838A830FC093
:101FA00069897A898B899C890E944900DC01CB016F
:101FB000888B8889898389818A95F1F7898383E071
:101FC00067E040E00E94E21969960FB6F894DEBF20
:101FD0000FBECDBFCF91DF910895DF93CF9300D097
:101FE00000D00F92CDB7DEB78A836B8381E08983FF
:101FF0008A818832E8F48A81282F30E03D832C835F
:102000008C819D818130910531F02C813D81223080
:10201000310531F00AC08B8180580E94190E0AC028
:102020008B8180540E94190E05C081E0898302C013
:1020300081E0898389810F900F900F900F900F900E
:10204000CF91DF910895DF93CF9300D00F92CDB75A
:10205000DEB79B838A8319820EC08981282F30E0E6
:102060008A819B81FC01E20FF31F80810E94030F94
:1020700089818F5F89838981282F30E08A819B81C4
:10208000FC01E20FF31F8081882339F70F900F9036
:102090000F90CF91DF9108950F931F93DF93CF930C
:1020A000CDB7DEB7C759D0400FB6F894DEBF0FBE2C
:1020B000CDBFCE0181579F4FCD56DF4F9983888387
:1020C000C359D04085ED90E0CB56DF4F998388838C
:1020D000C559D04093E0C956DF4F9883C759D040C7
:1020E000CB56DF4FE881F981C559D0400080CB56EF
:1020F000DF4F88819981C559D0400196CB56DF4F7B
:1021000099838883C559D040CD56DF4FE881F98146
:10211000C359D0400082CD56DF4F88819981C35981
:10212000D0400196CD56DF4F99838883C359D04064
:10213000C956DF4F9881C759D0409150C956DF4FDB
:102140009883C759D040C956DF4FE881C759D0405E
:10215000EE2331F60E9492180E94E80A85E40E945C
:10216000030F8EE40E94030F84E50E94030F85E4B1
:102170000E94030F82E50E94030F80E20E94030F7A
:1021800080E50E94030F81E40E94030F83E50E9413
:10219000030F83E50E94030F87E50E94030F8FE47E
:1021A0000E94030F82E50E94030F84E40E94030F44
:1021B00082E061E00E94ED0F2DC0CE018E569F4F50
:1021C0000E94DA09FE01EE56FF4F80818F3F11F128
:1021D000FE01EE56FF4F80810E94030FFE01E35780
:1021E000FF4F8081282F30E0CE0181579F4FFC01A7
:1021F000E20FF31F9081FE01EE56FF4F808198178A
:1022000079F4DE01A357BF4FFE01E357FF4F8081F2
:102210008F5F8C93FE01E357FF4F8081843068F21B
:10222000FE01E357FF4F8081843008F44CC70E94C1
:10223000E80A80E690E00E94231082E060E00E94BD
:10224000ED0F81E790E00E942310CE018E569F4F44
:102250000E94DA09FE01EE56FF4F80818F3FA9F3FD
:10226000FE01EE56FF4F8081813369F50E94E80A36
:1022700080E890E00E94231082E060E00E94ED0F71
:1022800085E890E00E942310CE018E569F4F0E9459
:10229000DA09FE01EE56FF4F80818F3FA9F3FE0160
:1022A000EE56FF4F8081813321F481E00E944F067A
:1022B000CCCFFE01EE56FF4F8081823329F780E0BC
:1022C0000E944F06C2CFFE01EE56FF4F808182333F
:1022D00009F0BBCF0E94E80A80E890E00E9423103A
:1022E00082E060E00E94ED0F85E890E00E942310FC
:1022F000CE018E569F4F0E94DA09FE01EE56FF4F27
:1023000080818F3FA9F3FE01EE56FF4F808181331C
:1023100009F002C40E94E80A8BE890E00E942310B2
:1023200082E060E00E94ED0F8CE990E00E942310B3
:10233000CE018E569F4F0E94DA09FE01EE56FF4FE6
:1023400080818F3FA9F3FE01EE56FF4F80818133DC
:1023500009F0BEC082E062E041E00E94E219FE01A5
:10236000E757FF4F80E090E0A8E4B3E480839183D7
:10237000A283B3838E010B571F4FFE01E757FF4F18
:10238000608171818281938120E030E04AEF54E4E2
:102390000E941F02DC01CB01F80180839183A2839C
:1023A000B383FE01EB57FF4F60817181828193817E
:1023B00020E030E040E85FE30E942504882344F4F5
:1023C000FE01ED57FF4F81E090E09183808364C070
:1023D000FE01EB57FF4F608171818281938120E084
:1023E0003FEF4FE757E40E94C50318160CF043C0B7
:1023F000FE01E757FF4F608171818281938120E068
:1024000030E040E251E40E941F02DC01CB018E016A
:102410000D571F4FBC01CD010E944900DC01CB01CB
:10242000F801918380831FC0FE01EF57FF4F88ECB6
:1024300090E091838083FE01EF57FF4F808191816F
:102440000197F1F7FE01EF57FF4F91838083DE0183
:10245000AD57BF4FFE01ED57FF4F8081918101972E
:1024600011969C938E93FE01ED57FF4F80819181D1
:102470000097D1F627C08E010D571F4FFE01EB5775
:10248000FF4F60817181828193810E944900DC014C
:10249000CB01F80191838083DE01A158BF4FFE017B
:1024A000ED57FF4F808191818D939C93FE01E15800
:1024B000FF4F808191810197F1F7FE01E158FF4FB5
:1024C0009183808382E063E041E00E94E219BDCE07
:1024D000FE01EE56FF4F8081823359F482E063E0C3
:1024E00041E00E94E21982E064E041E00E94E219CA
:1024F000ACCEFE01EE56FF4F8081833309F0C8C099
:1025000082E063E041E00E94E21982E064E041E0A1
:102510000E94E219FE01E558FF4F80E090E0AAEF2B
:10252000B4E480839183A283B3838E0109581F4F43
:10253000FE01E558FF4F608171818281938120E027
:1025400030E04AEF54E40E941F02DC01CB01F801A5
:1025500080839183A283B383FE01E958FF4F60819A
:1025600071818281938120E030E040E85FE30E9446
:102570002504882344F4FE01EB58FF4F81E090E0EE
:102580009183808364C0FE01E958FF4F60817181AF
:102590008281938120E03FEF4FE757E40E94C5031B
:1025A00018160CF043C0FE01E558FF4F60817181A1
:1025B0008281938120E030E040E251E40E941F02DA
:1025C000DC01CB018E010B581F4FBC01CD010E94D5
:1025D0004900DC01CB01F801918380831FC0FE011B
:1025E000ED58FF4F88EC90E091838083FE01ED5819
:1025F000FF4F808191810197F1F7FE01ED58FF4F68
:1026000091838083DE01AB58BF4FFE01EB58FF4F33
:1026100080819181019711969C938E93FE01EB58D6
:10262000FF4F808191810097D1F627C08E010B5812
:102630001F4FFE01E958FF4F6081718182819381B4
:102640000E944900DC01CB01F80191838083DE0107
:10265000AF58BF4FFE01EB58FF4F808191818D93A2
:102660009C93FE01EF58FF4F808191810197F1F714
:10267000FE01EF58FF4F9183808382E063E040E0EA
:102680000E94E21982E065E041E00E94E219DDCD9E
:10269000FE01EE56FF4F8081843309F049CE82E07F
:1026A00063E041E00E94E21982E064E041E00E94C0
:1026B000E219FE01E359FF4F80E090E0AAEFB4E495
:1026C00080839183A283B3838E0107591F4FFE013C
:1026D000E359FF4F608171818281938120E030E076
:1026E0004AEF54E40E941F02DC01CB01F801808311
:1026F0009183A283B383FE01E759FF4F608171810B
:102700008281938120E030E040E85FE30E9425046D
:10271000882344F4FE01E959FF4F81E090E0918362
:10272000808364C0FE01E759FF4F6081718182811F
:10273000938120E03FEF4FE757E40E94C50318164E
:102740000CF043C0FE01E359FF4F6081718182812B
:10275000938120E030E040E251E40E941F02DC015E
:10276000CB018E0109591F4FBC01CD010E944900C8
:10277000DC01CB01F801918380831FC0FE01EB597E
:10278000FF4F88EC90E091838083FE01EB59FF4F6F
:10279000808191810197F1F7FE01EB59FF4F918301
:1027A0008083DE01A959BF4FFE01E959FF4F8081A7
:1027B0009181019711969C938E93FE01E959FF4FE9
:1027C000808191810097D1F627C08E0109591F4F52
:1027D000FE01E759FF4F60817181828193810E94E0
:1027E0004900DC01CB01F80191838083DE01AD5902
:1027F000BF4FFE01E959FF4F808191818D939C93DA
:10280000FE01ED59FF4F808191810197F1F7FE01A3
:10281000ED59FF4F9183808382E064E041E00E94A4
:10282000E219FE01E15AFF4F80E090E0A8E4B3E432
:1028300080839183A283B3838E01055A1F4FFE01CB
:10284000E15AFF4F608171818281938120E030E005
:102850004AEF54E40E941F02DC01CB01F80180839F
:102860009183A283B383FE01E55AFF4F608171819A
:102870008281938120E030E040E85FE30E942504FC
:10288000882344F4FE01E75AFF4F81E090E09183F2
:10289000808364C0FE01E55AFF4F608171818281AF
:1028A000938120E03FEF4FE757E40E94C5031816DD
:1028B0000CF043C0FE01E15AFF4F608171818281BB
:1028C000938120E030E040E251E40E941F02DC01ED
:1028D000CB018E01075A1F4FBC01CD010E94490058
:1028E000DC01CB01F801918380831FC0FE01E95A0E
:1028F000FF4F88EC90E091838083FE01E95AFF4FFF
:10290000808191810197F1F7FE01E95AFF4F918390
:102910008083DE01A75ABF4FFE01E75AFF4F808137
:102920009181019711969C938E93FE01E75AFF4F78
:10293000808191810097D1F627C08E01075A1F4FE1
:10294000FE01E55AFF4F60817181828193810E946F
:102950004900DC01CB01F80191838083DE01AB5A91
:10296000BF4FFE01E75AFF4F808191818D939C9369
:10297000FE01EB5AFF4F808191810197F1F7FE0133
:10298000EB5AFF4F9183808382E063E040E00E9436
:10299000E21982E065E041E00E94E219FE01EF5A8F
:1029A000FF4F80E090E0AAEFB4E480839183A2839C
:1029B000B3838E01035B1F4FFE01EF5AFF4F60810F
:1029C00071818281938120E030E04AEF54E40E94DB
:1029D0001F02DC01CB01F80180839183A283B383C2
:1029E000FE01E35BFF4F608171818281938120E072
:1029F00030E040E85FE30E942504882344F4FE01B0
:102A0000E55BFF4F81E090E09183808364C0FE012D
:102A1000E35BFF4F608171818281938120E03FEF12
:102A20004FE757E40E94C50318160CF043C0FE019F
:102A3000EF5AFF4F608171818281938120E030E005
:102A400040E251E40E941F02DC01CB018E01055BD4
:102A50001F4FBC01CD010E944900DC01CB01F801F0
:102A6000918380831FC0FE01E75BFF4F88EC90E0FD
:102A700091838083FE01E75BFF4F80819181019705
:102A8000F1F7FE01E75BFF4F91838083DE01A55BD9
:102A9000BF4FFE01E55BFF4F808191810197119649
:102AA0009C938E93FE01E55BFF4F8081918100979F
:102AB000D1F627C08E01055B1F4FFE01E35BFF4F80
:102AC00060817181828193810E944900DC01CB0188
:102AD000F80191838083DE01A95BBF4FFE01E55BB6
:102AE000FF4F808191818D939C93FE01E95BFF4FA5
:102AF000808191810197F1F7FE01E95BFF4F91839E
:102B0000808382E062E041E00E94E21982E064E0BA
:102B100040E00E94E21999CBFE01EE56FF4F808102
:102B2000823309F0E5CB0E94E80A8BE890E00E942E
:102B3000231082E060E00E94ED0F8CE990E00E949B
:102B40002310CE018E569F4F0E94DA09FE01EE56E9
:102B5000FF4F80818F3FA9F3FE01EE56FF4F80812A
:102B6000813309F090C082E065E041E00E94E21903
:102B7000FE01ED5BFF4F80E090E0A8E4B3E48083CA
:102B80009183A283B3838E01015C1F4FFE01ED5B35
:102B9000FF4F608171818281938120E030E04AEFB4
:102BA00054E40E941F02DC01CB01F8018083918371
:102BB000A283B383FE01FF9660817181828193813C
:102BC00020E030E040E85FE30E94250488232CF4F5
:102BD00081E090E09EAF8DAF46C0FE01FF96608120
:102BE00071818281938120E03FEF4FE757E40E949B
:102BF000C503181664F5FE01ED5BFF4F608171811E
:102C00008281938120E030E040E251E40E941F0283
:102C1000DC01CB01BC01CD010E944900DC01CB01EC
:102C20009EAF8DAF0FC088EC90E09CAF8BAF8BADAB
:102C30009CAD0197F1F79CAF8BAF8DAD9EAD019729
:102C40009EAF8DAF8DAD9EAD009769F716C0FE01AA
:102C5000FF9660817181828193810E944900DC012D
:102C6000CB019EAF8DAF8DAD9EAD9AAF89AF89ADD3
:102C70009AAD0197F1F79AAF89AF82E064E041E045
:102C80000E94E219E2CAFE01EE56FF4F80818233B4
:102C900059F482E064E041E00E94E21982E063E0DE
:102CA00041E00E94E219D1CAFE01EE56FF4F808139
:102CB000833309F087C082E064E041E00E94E219BA
:102CC00082E063E041E00E94E21980E090E0AAEF38
:102CD000B4E48DAB9EABAFABB8AF6DA97EA98FA9A5
:102CE00098AD20E030E04AEF54E40E941F02DC017E
:102CF000CB0189AB9AABABABBCAB69A97AA98BA969
:102D00009CA920E030E040E85FE30E94250488238E
:102D10002CF481E090E098AB8FA73FC069A97AA915
:102D20008BA99CA920E03FEF4FE757E40E94C50321
:102D300018164CF56DA97EA98FA998AD20E030E05A
:102D400040E251E40E941F02DC01CB01BC01CD0135
:102D50000E944900DC01CB0198AB8FA70FC088EC23
:102D600090E09EA78DA78DA59EA50197F1F79EA740
:102D70008DA78FA598A9019798AB8FA78FA598A924
:102D8000009769F714C069A97AA98BA99CA90E9428
:102D90004900DC01CB0198AB8FA78FA598A99CA710
:102DA0008BA78BA59CA50197F1F79CA78BA782E029
:102DB00064E040E00E94E21982E062E041E00E94AB
:102DC000E21943CAFE01EE56FF4F8081843309F0B9
:102DD000B8CE82E064E041E00E94E21982E063E064
:102DE00041E00E94E21980E090E0AAEFB4E48FA3F2
:102DF00098A7A9A7BAA76FA178A589A59AA520E049
:102E000030E04AEF54E40E941F02DC01CB018BA3A7
:102E10009CA3ADA3BEA36BA17CA18DA19EA120E02C
:102E200030E040E85FE30E94250488232CF481E031
:102E300090E09AA389A33FC06BA17CA18DA19EA124
:102E400020E03FEF4FE757E40E94C50318164CF50A
:102E50006FA178A589A59AA520E030E040E251E471
:102E60000E941F02DC01CB01BC01CD010E94490080
:102E7000DC01CB019AA389A30FC088EC90E098A352
:102E80008F8F8F8D98A10197F1F798A38F8F89A1CC
:102E90009AA101979AA389A389A19AA1009769F79A
:102EA00014C06BA17CA18DA19EA10E944900DC01F0
:102EB000CB019AA389A389A19AA19E8F8D8F8D8D15
:102EC0009E8D0197F1F79E8F8D8F82E063E041E048
:102ED0000E94E21980E090E0A8E4B3E4898F9A8F21
:102EE000AB8FBC8F698D7A8D8B8D9C8D20E030E00F
:102EF0004AEF54E40E941F02DC01CB018D8B9E8BB4
:102F0000AF8BB88F6D897E898F89988D20E030E0F6
:102F100040E85FE30E94250488232CF481E090E0E0
:102F20009C8B8B8B3FC06D897E898F89988D20E02B
:102F30003FEF4FE757E40E94C50318164CF5698D23
:102F40007A8D8B8D9C8D20E030E040E251E40E9430
:102F50001F02DC01CB01BC01CD010E944900DC0154
:102F6000CB019C8B8B8B0FC088EC90E09A8B898B6C
:102F700089899A890197F1F79A8B898B8B899C892A
:102F800001979C8B8B8B8B899C89009769F714C068
:102F90006D897E898F89988D0E944900DC01CB0163
:102FA0009C8B8B8B8B899C89988B8F878F8598893D
:102FB0000197F1F7988B8F8782E064E040E00E94F0
:102FC000E21982E062E041E00E94E21980E090E0D4
:102FD000AAEFB4E48B879C87AD87BE876B857C8521
:102FE0008D859E8520E030E04AEF54E40E941F0268
:102FF000DC01CB018F839887A987BA876F81788599
:1030000089859A8520E030E040E85FE30E9425044E
:1030100088232CF481E090E09E838D833FC06F81F4
:10302000788589859A8520E03FEF4FE757E40E9435
:10303000C50318164CF56B857C858D859E8520E033
:1030400030E040E251E40E941F02DC01CB01BC01F0
:10305000CD010E944900DC01CB019E838D830FC00E
:1030600088EC90E09C838B838B819C810197F1F7A6
:103070009C838B838D819E8101979E838D838D811F
:103080009E81009769F714C06F81788589859A853C
:103090000E944900DC01CB019E838D838D819E813E
:1030A0009A83898389819A810197F1F79A83898329
:1030B00082E065E041E00E94E21982E063E040E0E6
:1030C0000E94E219C2C80E94E80A82EA90E00E94C7
:1030D0002310C956DF4F0FB6F894DEBF0FBECDBF29
:1030E000CF91DF911F910F910895DF93CF93CDB7CB
:1030F000DEB70E94BE0983E062E040E00E94B8189B
:1031000080E060E00E946907AFE5B0E0EFE5F0E045
:10311000808180688C932CE430E180E0B9010E94CA
:10312000FD08FFCFDF93CF93CDB7DEB7EAE3F0E042
:103130008FE08083E1E3F0E08BEF8083E4E3F0E075
:103140008FE38083E7E3F0E08FEF8083EBE3F0E051
:103150008FEF8083E2E3F0E084E08083E5E3F0E05A
:1031600080EC8083E8E3F0E01082CF91DF91089556
:10317000DF93CF93CDB7DEB72E970FB6F894DEBFAF
:103180000FBECDBF8A836B834C8381E089838A81A4
:10319000843008F00CC18B81883008F008C18C8124
:1031A000882321F48C81882309F001C18A81282F8A
:1031B00030E03E872D878D859E858130910509F40D
:1031C0004FC02D853E85223031052CF48D859E859E
:1031D000009771F0EDC02D853E852230310509F450
:1031E00077C08D859E858330910509F4A9C0E0C024
:1031F0008C81282F30E03C872B878B859C8500971E
:10320000D1F02B853C852130310509F0D1C0AAE3EE
:10321000B0E0EAE3F0E08081482F8B81282F30E096
:1032200081E090E0022E02C0880F991F0A94E2F715
:10323000842B8C93BDC0AAE3B0E0EAE3F0E0808188
:10324000482F8B81282F30E081E090E0022E02C0D1
:10325000880F991F0A94E2F7809584238C93A8C065
:103260008C81282F30E03A87298789859A850097B5
:10327000D1F029853A852130310509F099C0A7E3BD
:10328000B0E0E7E3F0E08081482F8B81282F30E029
:1032900081E090E0022E02C0880F991F0A94E2F7A5
:1032A000842B8C9385C0A7E3B0E0E7E3F0E0808156
:1032B000482F8B81282F30E081E090E0022E02C061
:1032C000880F991F0A94E2F7809584238C9370C02D
:1032D0008C81282F30E038872F838F819885009745
:1032E000D1F02F8138852130310509F061C0A4E388
:1032F000B0E0E4E3F0E08081482F8B81282F30E0BC
:1033000081E090E0022E02C0880F991F0A94E2F734
:10331000842B8C934DC0A4E3B0E0E4E3F0E0808123
:10332000482F8B81282F30E081E090E0022E02C0F0
:10333000880F991F0A94E2F7809584238C9338C0F4
:103340008C81282F30E03E832D838D819E810097D4
:10335000C9F02D813E812130310551F5A1E3B0E066
:10336000E1E3F0E08081482F8B81282F30E081E07D
:1033700090E0022E02C0880F991F0A94E2F7842B76
:103380008C9316C0A1E3B0E0E1E3F0E08081482F28
:103390008B81282F30E081E090E0022E02C0880F60
:1033A000991F0A94E2F7809584238C9301C01982B7
:1033B00089812E960FB6F894DEBF0FBECDBFCF9198
:1033C000DF910895DF93CF93CDB7DEB72E970FB679
:1033D000F894DEBF0FBECDBF8A836B834C8381E040
:1033E00089838B81883008F008C18A81282F30E0DA
:1033F0003E872D878D859E858130910509F450C0CB
:103400002D853E85223031052CF48D859E850097D3
:1034100071F0F1C02D853E852230310509F479C067
:103420008D859E858330910509F4ACC0E4C08C8104
:10343000282F30E03C872B878B859C850097C9F02F
:103440002B853C852130310549F5ABE3B0E0EBE35A
:10345000F0E08081482F8B81282F30E081E090E0E0
:10346000022E02C0880F991F0A94E2F7842B8C93D6
:10347000C5C0ABE3B0E0EBE3F0E08081482F8B8187
:10348000282F30E081E090E0022E02C0880F991FC3
:103490000A94E2F7809584238C93B0C01982AEC061
:1034A0008C81282F30E03A87298789859A85009773
:1034B000C9F029853A852130310549F5A8E3B0E006
:1034C000E8E3F0E08081482F8B81282F30E081E015
:1034D00090E0022E02C0880F991F0A94E2F7842B15
:1034E0008C938CC0A8E3B0E0E8E3F0E08081482F43
:1034F0008B81282F30E081E090E0022E02C0880FFF
:10350000991F0A94E2F7809584238C9377C01982DF
:1035100075C08C81282F30E038872F838F81988564
:103520000097C9F02F8138852130310549F5A5E391
:10353000B0E0E5E3F0E08081482F8B81282F30E078
:1035400081E090E0022E02C0880F991F0A94E2F7F2
:10355000842B8C9353C0A5E3B0E0E5E3F0E08081D9
:10356000482F8B81282F30E081E090E0022E02C0AE
:10357000880F991F0A94E2F7809584238C933EC0AC
:1035800019823CC08C81282F30E03E832D838D81B1
:103590009E810097C9F02D813E812130310549F58A
:1035A000A2E3B0E0E2E3F0E08081482F8B81282F96
:1035B00030E081E090E0022E02C0880F991F0A944B
:1035C000E2F7842B8C931AC0A2E3B0E0E2E3F0E0D0
:1035D0008081482F8B81282F30E081E090E0022EFF
:1035E00002C0880F991F0A94E2F7809584238C9378
:1035F00005C0198203C0198201C0198289812E96E3
:103600000FB6F894DEBF0FBECDBFCF91DF91089506
:10361000DF93CF93CDB7DEB728970FB6F894DEBF10
:103620000FBECDBF8B836C835E834D8381E08A8325
:103630008B81843008F09EC08C81883008F09AC05D
:103640008D819E81009709F495C08B81282F30E0F1
:1036500038872F834F81588541305105A9F18F81DB
:1036600098858230910534F42F81388521153105F4
:1036700071F080C04F8158854230510509F441C036
:103680008F8198858330910509F458C073C0E9E3B0
:10369000F0E08081282F30E08C81882F90E0A90114
:1036A00002C0559547958A95E2F7CA0181708983D2
:1036B0008981882321F4ED81FE8110825BC0ED8138
:1036C000FE8181E0808356C0E6E3F0E08081282F10
:1036D00030E08C81882F90E0A90102C05595479574
:1036E0008A95E2F7CA01817089838981882321F450
:1036F000ED81FE8110823EC0ED81FE8181E08083FC
:1037000039C0E3E3F0E08081282F30E08C81882FFE
:1037100090E0A90102C0559547958A95E2F7CA0144
:10372000817089838981882321F4ED81FE81108253
:1037300021C0ED81FE8181E080831CC0E0E3F0E0E8
:103740008081282F30E08C81882F90E0A90102C071
:10375000559547958A95E2F7CA01817089838981D9
:10376000882321F4ED81FE81108204C0ED81FE8169
:1037700081E080838A8128960FB6F894DEBF0FBE61
:10378000CDBFCF91DF910895DF93CF93CDB7DEB753
:103790002D970FB6F894DEBF0FBECDBF8A836B8323
:1037A00081E089838B81813021F08B81882309F02E
:1037B0007DC08A81282F30E03D872C878C859D85B0
:1037C0008130910571F12C853D85223031052CF435
:1037D0008C859D85009769F06BC02C853D852230D6
:1037E0003105B1F18C859D858330910509F447C081
:1037F0005FC08B81282F30E03B872A878A859B8595
:10380000009759F02A853B852130310509F050C0D9
:10381000EAE3F0E08FEF80834BC0EAE3F0E0108250
:1038200047C08B81282F30E0398728878885998584
:10383000009751F02885398521303105C9F5E7E336
:10384000F0E08FEF808334C0E7E3F0E0108230C017
:103850008B81282F30E03F832E838E819F810097BC
:1038600051F02E813F812130310511F5E4E3F0E084
:103870008FEF80831DC0E4E3F0E0108219C08B81DC
:10388000282F30E03D832C838C819D81009751F05F
:103890002C813D812130310559F4E1E3F0E08FEFD7
:1038A000808306C0E1E3F0E0108202C081E08983FA
:1038B00089812D960FB6F894DEBF0FBECDBFCF9194
:1038C000DF910895DF93CF9300D000D00F92CDB752
:1038D000DEB78A836B8381E089838A81282F30E079
:1038E0003D832C838C819D8181309105D1F02C8189
:1038F0003D81223031052CF48C819D81009761F04F
:103900001FC02C813D812230310581F08C819D8149
:103910008330910581F014C0EBE3F0E08B8180836C
:1039200010C0E8E3F0E08B8180830BC0E5E3F0E0BA
:103930008B81808306C0E2E3F0E08B81808301C04D
:10394000198289810F900F900F900F900F90CF9157
:10395000DF910895DF93CF9300D000D000D0CDB792
:10396000DEB78A837C836B8381E089838B819C8132
:103970000097E9F18A81282F30E03E832D838D81E5
:103980009E8181309105E1F02D813E81223031050B
:103990002CF48D819E81009761F027C02D813E819E
:1039A00022303105A1F08D819E8183309105B1F0E7
:1039B0001CC0E9E3F0E08081EB81FC81808319C0C9
:1039C000E6E3F0E08081EB81FC81808312C0E3E3D9
:1039D000F0E08081EB81FC8180830BC0E0E3F0E0CC
:1039E0008081EB81FC81808304C0198202C081E068
:1039F0008983898126960FB6F894DEBF0FBECDBFAE
:103A0000CF91DF9108952F923F924F925F926F92E4
:103A10007F928F929F92AF92BF92CF92DF92EF925E
:103A2000FF920F931F93CF93DF93CDB7DEB7CA1BDF
:103A3000DB0B0FB6F894DEBF0FBECDBF09942A880A
:103A4000398848885F846E847D848C849B84AA84B2
:103A5000B984C884DF80EE80FD800C811B81AA813F
:103A6000B981CE0FD11D0FB6F894DEBF0FBECDBF0A
:083A7000ED010895F894FFCF69
:103A7800316463206D6F746F722033657869737475
:103A8800003273746570706572206D6F746F7200A8
:103A98003120435700322043435700312D3930201D
:103AA800322D31383020332D32373000342D333633
:103AB8003000696E636F727265637420706173732E
:103AC800776F72640000000000000000003132339C
:103AD8002F3435362A3738392D6E303D2B00010208
:083AE800030405060731323327
:00000001FF
