:100000000C942A000C9434000C9434000C943400AA
:100010000C9434000C9434000C9434000C94340090
:100020000C9434000C9434000C9434000C94340080
:100030000C9434000C9434000C9434000C94340070
:100040000C9434000C9434000C9434000C94340060
:100050000C94340011241FBECFE5D8E0DEBFCDBF25
:100060000E9436000C94EC010C940000CF93DF93B7
:1000700082E061E00E948E01C9E1D0E082E061E0AF
:100080000E94BE0188E893E1FE013197F1F70197E4
:10009000D9F782E060E00E94BE0188E893E1FE01AA
:1000A0003197F1F70197D9F7E9CF1ABA11BA14BA13
:1000B00017BA8FEF8BBB82BB85BB88BB089584309A
:1000C00008F07DC0683008F07AC0813029F18130B5
:1000D00038F0823009F43CC0833009F072C053C05C
:1000E000442371F0413009F06CC02AB381E090E004
:1000F00002C0880F991F6A95E2F7282B2ABB5DC0C2
:100100002AB381E090E002C0880F991F6A95E2F758
:10011000809582238ABB51C0442371F0413009F09D
:1001200050C027B381E090E002C0880F991F6A9504
:10013000E2F7282B27BB41C027B381E090E002C043
:10014000880F991F6A95E2F78095822387BB35C097
:10015000442369F04130A9F524B381E090E002C066
:10016000880F991F6A95E2F7282B24BB26C024B379
:1001700081E090E002C0880F991F6A95E2F78095B0
:10018000822384BB1AC0442369F04130D1F421B3E7
:1001900081E090E002C0880F991F6A95E2F7282B52
:1001A00021BB0BC021B381E090E002C0880F991FF2
:1001B0006A95E2F78095822381BB81E0089580E013
:1001C000089581E00895683008F07AC0813029F1FF
:1001D000813038F0823009F43CC0833009F070C0BF
:1001E00053C0442371F0413009F06AC02BB381E061
:1001F00090E002C0880F991F6A95E2F7282B2BBB6D
:100200005DC02BB381E090E002C0880F991F6A9512
:10021000E2F7809582238BBB51C0442371F04130BB
:1002200009F04EC028B381E090E002C0880F991F0A
:100230006A95E2F7282B28BB41C028B381E090E003
:1002400002C0880F991F6A95E2F78095822388BBC8
:1002500035C0442369F0413099F525B381E090E041
:1002600002C0880F991F6A95E2F7282B25BB26C08C
:1002700025B381E090E002C0880F991F6A95E2F7EC
:100280008095822385BB1AC0442369F04130C1F4B4
:1002900022B381E090E002C0880F991F6A95E2F7CF
:1002A000282B22BB0BC022B381E090E002C0880F54
:1002B000991F6A95E2F78095822382BB81E00895B9
:1002C00080E00895282FFA01843030F5683020F559
:1002D0004115510509F1813039F0813080F08230CB
:1002E00071F08330C9F40BC089B390E002C09595DA
:1002F00087956A95E2F780FF0BC020830DC089B314
:1003000090E002C0959587956A95E2F780FD02C05E
:10031000108202C081E0808381E00895623060F540
:10032000813081F0813028F08230A9F0833021F5CE
:100330001BC0662329F06130F9F48FEF8ABB1CC023
:100340001ABA1AC0662329F06130B1F48FEF87BB67
:1003500013C017BA11C0662329F0613069F48FEF1A
:1003600084BB0AC014BA08C0662329F0613021F4A6
:100370008FEF81BB01C011BA81E00895813051F047
:10038000813030F0823041F0833049F080E00895D0
:100390006BBB03C068BB01C065BB81E0089562BB55
:1003A00081E00895FB016115710581F0813051F004
:1003B000813030F0823041F0833051F080E0089598
:1003C00089B303C086B301C083B3808381E00895FD
:0C03D00080B3808381E00895F894FFCF93
:00000001FF
