:100000000C942A000C943F000C943F000C943F0089
:100010000C943F000C943F000C943F000C943F0064
:100020000C943F000C943F000C943F000C943F0054
:100030000C943F000C943F000C943F000C943F0044
:100040000C943F000C943F000C943F000C943F0034
:100050000C943F0011241FBECFE5D8E0DEBFCDBF1A
:1000600010E0A0E6B0E0E4EAF5E002C005900D92F1
:10007000A837B107D9F70E941B010C94D0020C9449
:1000800000006F927F928F929F92AF92BF92CF9219
:10009000DF92EF92FF920F931F93DF93CF9300D0E5
:1000A000CDB7DEB75C01009709F44AC08FEFF501C8
:1000B000808380E06091740040E00E94C30104E707
:1000C00010E090E7C92E90E0D92E1A824E010894D4
:1000D000811C911C80E4682E8CE9782EE0907400DD
:1000E000F801F08080E06F2DA4010E944202898116
:1000F0008823A9F4C3010197F1F780E06F2DA401D3
:100100000E9442028981882351F46F2DA4010E942C
:100110004202F6018081F5018083F1E0FA8380E0FC
:100120006E2D41E00E94C3018A81813049F00F5F4A
:100130001F4F0894C11CD11CE0E008371E0781F650
:100140000F900F90CF91DF911F910F91FF90EF9043
:10015000DF90CF90BF90AF909F908F907F906F90E7
:1001600008951F93182F81E060E041E00E94C301D1
:1001700081E061E040E00E94C30183E0612F0E94C2
:10018000A20281E062E041E00E94C30181E08A9521
:10019000F1F781E062E040E00E94C3011F91089501
:1001A0001F93182F81E060E040E00E94C30181E0CE
:1001B00061E040E00E94C30183E0612F0E94A2023F
:1001C00081E062E041E00E94C30181E08A95F1F79D
:1001D00081E062E040E00E94C3011F9108958832EF
:1001E00060F4813019F0823041F403C0862F8058CA
:1001F00002C0862F80540E94D00081E008951F9392
:100200008EE292E20197F1F788E30E94D0001DE0B0
:10021000812F8A95F1F78FE00E94D0001A95F1F7AF
:1002200081E00E94D00081E08A95F1F786E00E948B
:10023000D0001F9108950F931F93DF93CF930F92D8
:10024000CDB7DEB70E9432010E94FF008E010F5F22
:100250001F4FC8010E94410089818F3FD1F30E9446
:10026000B100F7CF8FE08ABB9FEF91BB14BA87E054
:1002700087BB9BBB12BA95BB8EEF88BB08958430B9
:1002800008F07DC0683008F07AC0813029F18130F3
:1002900038F0823009F43CC0833009F072C053C09A
:1002A000442371F0413009F06CC02AB381E090E042
:1002B00002C0880F991F6A95E2F7282B2ABB5DC000
:1002C0002AB381E090E002C0880F991F6A95E2F797
:1002D000809582238ABB51C0442371F0413009F0DC
:1002E00050C027B381E090E002C0880F991F6A9543
:1002F000E2F7282B27BB41C027B381E090E002C082
:10030000880F991F6A95E2F78095822387BB35C0D5
:10031000442369F04130A9F524B381E090E002C0A4
:10032000880F991F6A95E2F7282B24BB26C024B3B7
:1003300081E090E002C0880F991F6A95E2F78095EE
:10034000822384BB1AC0442369F04130D1F421B325
:1003500081E090E002C0880F991F6A95E2F7282B90
:1003600021BB0BC021B381E090E002C0880F991F30
:100370006A95E2F78095822381BB81E0089580E051
:10038000089581E00895683008F07AC0813029F13D
:10039000813038F0823009F43CC0833009F070C0FD
:1003A00053C0442371F0413009F06AC02BB381E09F
:1003B00090E002C0880F991F6A95E2F7282B2BBBAB
:1003C0005DC02BB381E090E002C0880F991F6A9551
:1003D000E2F7809582238BBB51C0442371F04130FA
:1003E00009F04EC028B381E090E002C0880F991F49
:1003F0006A95E2F7282B28BB41C028B381E090E042
:1004000002C0880F991F6A95E2F78095822388BB06
:1004100035C0442369F0413099F525B381E090E07F
:1004200002C0880F991F6A95E2F7282B25BB26C0CA
:1004300025B381E090E002C0880F991F6A95E2F72A
:100440008095822385BB1AC0442369F04130C1F4F2
:1004500022B381E090E002C0880F991F6A95E2F70D
:10046000282B22BB0BC022B381E090E002C0880F92
:10047000991F6A95E2F78095822382BB81E00895F7
:1004800080E00895282FFA01843050F5683040F557
:100490004115510529F1813049F0813028F0823031
:1004A00081F08330E9F40FC089B30EC086B390E0C9
:1004B00002C0959587956A95E2F780FF0DC020836D
:1004C0000FC083B301C080B390E002C095958795BB
:1004D0006A95E2F780FD02C0108202C081E080834D
:1004E00081E00895623060F5813081F0813028F03C
:1004F0008230A9F0833021F51BC0662329F06130DA
:10050000F9F48FEF8ABB1CC01ABA1AC0662329F00F
:100510006130B1F48FEF87BB13C017BA11C06623E7
:1005200029F0613069F48FEF84BB0AC014BA08C0A7
:10053000662329F0613021F48FEF81BB01C011BA2D
:1005400081E00895813051F0813030F0823041F007
:10055000833049F080E008956BBB03C068BB01C0E5
:1005600065BB81E0089562BB81E00895FB016115E0
:10057000710581F0813051F0813030F0823041F0EE
:10058000833051F080E0089589B303C086B301C081
:1005900083B3808381E0089580B3808381E00895F0
:0405A000F894FFCFFD
:1005A4003132332B3435362D3738392A303D2F2626
:0805B400000102030405060723
:00000001FF
