:100000000C942A000C9434000C9434000C943400AA
:100010000C9434000C9434000C9434000C94340090
:100020000C9434000C9434000C9434000C94340080
:100030000C9434000C9434000C9434000C94340070
:100040000C9434000C9434000C9434000C94340060
:100050000C94340011241FBECFE5D8E0DEBFCDBF25
:100060000E9436000C9460020C9400000E94C700AD
:100070000E94AB0080E40E947C0080E00E945D0052
:1000800080E00E945D0080E00E945D0084E00E94AC
:100090005D0086E00E945D0087E00E945D008CE1CB
:1000A0000E945D008CE00E945D0081E061E00E94A2
:1000B0009B0080E00E945D00FFCF1F93182F80E01F
:1000C00060E041E00E94570180E061E040E00E9472
:1000D000570183E0612F0E94320280E062E041E03C
:1000E0000E94570181E08A95F1F780E062E040E0EC
:1000F0000E9457011F9108951F93182F80E060E020
:1001000040E00E94570180E061E040E00E9457011A
:1001100083E0612F0E94320280E062E041E00E94B1
:10012000570181E08A95F1F780E062E040E00E94AB
:1001300057011F910895883260F4813019F08230A0
:1001400041F403C0862F805802C0862F80540E943D
:100150007C0081E008951F938EE292E20197F1F70F
:1001600088E30E947C001DE0812F8A95F1F78FE0E3
:100170000E947C001A95F1F781E00E947C0081E0EA
:100180008A95F1F786E00E947C001F91089587E030
:100190008ABB9FEF91BB14BA17BA88EF8BBB12BA18
:1001A00095BB98BB0895843008F07DC0683008F096
:1001B0007AC0813029F1813038F0823009F43CC0B6
:1001C000833009F072C053C0442371F0413009F00C
:1001D0006CC02AB381E090E002C0880F991F6A9535
:1001E000E2F7282B2ABB5DC02AB381E090E002C071
:1001F000880F991F6A95E2F7809582238ABB51C0C8
:10020000442371F0413009F050C027B381E090E001
:1002100002C0880F991F6A95E2F7282B27BB41C0BF
:1002200027B381E090E002C0880F991F6A95E2F73A
:100230008095822387BB35C0442369F04130A9F5FE
:1002400024B381E090E002C0880F991F6A95E2F71D
:10025000282B24BB26C024B381E090E002C0880F85
:10026000991F6A95E2F78095822384BB1AC04423C4
:1002700069F04130D1F421B381E090E002C0880FF1
:10028000991F6A95E2F7282B21BB0BC021B381E0AF
:1002900090E002C0880F991F6A95E2F7809582234B
:1002A00081BB81E0089580E0089581E00895683081
:1002B00008F07AC0813029F1813038F0823009F4B9
:1002C0003CC0833009F070C053C0442371F041300A
:1002D00009F06AC02BB381E090E002C0880F991F3B
:1002E0006A95E2F7282B2BBB5DC02BB381E090E031
:1002F00002C0880F991F6A95E2F7809582238BBB15
:1003000051C0442371F0413009F04EC028B381E060
:1003100090E002C0880F991F6A95E2F7282B28BB4E
:1003200041C028B381E090E002C0880F991F6A9510
:10033000E2F78095822388BB35C0442369F04130C1
:1003400099F525B381E090E002C0880F991F6A9566
:10035000E2F7282B25BB26C025B381E090E002C040
:10036000880F991F6A95E2F78095822385BB1AC092
:10037000442369F04130C1F422B381E090E002C02F
:10038000880F991F6A95E2F7282B22BB0BC022B376
:1003900081E090E002C0880F991F6A95E2F780958E
:1003A000822382BB81E0089580E00895282FFA011E
:1003B000843030F5683020F54115510509F1813060
:1003C00039F0813080F0823071F08330C9F40BC095
:1003D00089B390E002C0959587956A95E2F780FF12
:1003E0000BC020830DC089B390E002C0959587951E
:1003F0006A95E2F780FD02C0108202C081E080832E
:1004000081E00895623060F5813081F0813028F01C
:100410008230A9F0833021F51BC0662329F06130BA
:10042000F9F48FEF8ABB1CC01ABA1AC0662329F0F0
:100430006130B1F48FEF87BB13C017BA11C06623C8
:1004400029F0613069F48FEF84BB0AC014BA08C088
:10045000662329F0613021F48FEF81BB01C011BA0E
:1004600081E00895813051F0813030F0823041F0E8
:10047000833049F080E008956BBB03C068BB01C0C6
:1004800065BB81E0089562BB81E00895FB016115C1
:10049000710581F0813051F0813030F0823041F0CF
:1004A000833051F080E0089589B303C086B301C062
:1004B00083B3808381E0089580B3808381E00895D1
:0404C000F894FFCFDE
:00000001FF
